:020000040800F2
:1000000038050020D5010008D9010008DB010008EF
:10001000DD010008DF010008E10100080000000028
:10002000000000000000000000000000E3010008E4
:10003000E501000800000000E7010008E9010008F0
:10004000EB010008EB010008EB010008EB010008E0
:10005000EB010008EB010008EB010008EB010008D0
:10006000EB010008EB010008EB010008EB010008C0
:10007000EB010008EB010008EB010008EB010008B0
:10008000EB010008EB010008EB010008EB010008A0
:10009000EB010008EB010008EB010008EB01000890
:1000A000EB010008EB010008EB010008EB01000880
:1000B000EB010008EB010008EB010008EB01000870
:1000C000EB010008EB010008EB010008EB01000860
:1000D000EB010008C50B0008EB010008EB0100086C
:1000E000EB010008EB010008EB010008EB01000840
:1000F000EB010008EB010008EB010008EB01000830
:10010000EB010008EB010008EB010008EB0100081F
:10011000EB010008EB010008EB010008EB0100080F
:10012000EB010008EB010008EB010008EB010008FF
:1001300000F002F800F03FF80AA090E8000C8244BA
:100140008344AAF10107DA4501D100F034F8AFF297
:10015000090EBAE80F0013F0010F18BFFB1A43F0A5
:1001600001031847602A0000802A0000103A24BFCB
:1001700078C878C1FAD8520724BF30C830C144BF0C
:1001800004680C607047000000230024002500264E
:10019000103A28BF78C1FBD8520728BF30C148BFEA
:1001A0000B607047632900F0A880002070471FB5DE
:1001B0001FBD10B510BD00F0DBF81146FFF7F7FFCB
:1001C00000F0DAFD00F0F9F803B4FFF7F2FF03BC2A
:1001D00000F03AFD08480047FEE7FEE7FEE7FEE7CD
:1001E000FEE7FEE7FEE7FEE7FEE7FEE70348044919
:1001F000024A044B7047000031010008380100201A
:100200003805002038010020704700000FB4044971
:1002100010B503AA029800F07DF810BC5DF814FB3D
:10022000080000202DE9F0410E460446002020621F
:100230002046E168884730B3252805D0D4E901215C
:100240009047206A401CF2E7E16820460027884773
:10025000050018D0A5F14100192802D820354FF427
:1002600000673246294620462760FFF79BFF40B1D2
:10027000012804D0F61D26F007060836D8E7361DFB
:10028000D6E72846DAE7206ABDE8F08170B50C466B
:100290000546012A05D02878800600D5EA690023A2
:1002A00002E0012305E05B1C934202D2E05C0028DF
:1002B000F9D1A869E618C01AA861286A184428620A
:1002C0002846AFF3008004E0D5E9012114F8010BC2
:1002D0009047B442F8D32846AFF3008070BD704712
:1002E00070477047704710B5436913B1AFF3008092
:1002F00001E0FFF7CBFF012010BD127800F12401CF
:100300000A7000224A700122EDE711684FF0FF32B7
:10031000E9E70000074B70B50D467B4400F011F88B
:100320000446284600F020F810B14FF0FF3070BDB1
:10033000204670BDAF09000001694A1C02610878BF
:10034000704700B58FB0CDE9013100210591054915
:100350007944CDE9031011466846FFF763FF0FB0FB
:1003600000BD0000E5FFFFFF007B00F0800070474C
:10037000754600F02BF8AE4605006946534620F05E
:100380000700854618B020B5FFF730FFBDE82040D4
:100390004FF000064FF000074FF000084FF0000B41
:1003A00021F00701AC46ACE8C009ACE8C009ACE8F4
:1003B000C009ACE8C0098D46704710B50446AFF3DC
:1003C00000802046BDE81040FFF7FEBE00487047A1
:1003D000D800002070B5044600254FF49636002161
:1003E000084600F045FB00F09BFA00BF10E001203A
:1003F000094908600949C1F89801094804600020CA
:100400000549091F086001200449C1F89C016D1CC1
:10041000B542ECD370BD0000A00122420000224290
:100420000C0C01401848806940F0040016498861AE
:100430000846806940F0200088611448006820F078
:100440000F00124908600846006840F00300086089
:100450000E480830006840F480700C49083108608C
:100460000B48006820F4706009490860084600687D
:1004700040F44070086006480C30006840F004000A
:1004800003490C3108607047001002400408014025
:10049000001401402DE9F04705460C46164600279A
:1004A000B94604F0FF0AA6F12000C6B200BF41E041
:1004B00006EBC600214901EB800010F807804FF0E1
:1004C000000923E008F0800030B14FF4FC622946B7
:1004D000204600F03BF80FE0012019490860194957
:1004E000C1F898010020184908601549091F0860E3
:1004F00001201449C1F89C014FEA48604FEA106896
:10050000601C84B209F1010000F0FF09B9F1080F85
:10051000D8DBF02C01DBBDE8F087A4EB0A0018283B
:1005200006D15446681C85B2B5F5A07F00DBF2E722
:10053000781CC7B2242FBBDB00BFECE7661E0008A7
:10054000A0012242000022420C0C014070B5054679
:100550000E4614463146284600F08AFA00F0E0F9CB
:100560000120084908600849C1F89801074804605B
:1005700000200449091F086001200349C1F89C01BB
:1005800070BD0000A0012242000022420C0C01407C
:1005900010B5B348806940F00800B1498861084649
:1005A000806940F0100088610846806940F00100D1
:1005B0008861AC48406820F0E060AA49486008467D
:1005C000406840F080604860A74840686FF30B00C7
:1005D000A54948600846406840F233310843A249C3
:1005E00048600846006820F07F40086008460068C0
:1005F00040F04C5008600846C06840F4F860C8609D
:100600004FF0333099490860091F08604FF6FF70BA
:10061000964908310860052000F03AFB0020944913
:100620000860012100F056F9052000F031FBCF20D1
:1006300000F020F9002000F035F9C12000F032F977
:10064000302000F02FF9ED2000F014F9642000F0C4
:1006500029F9032000F026F9122000F023F9812067
:1006600000F020F9E82000F005F9852000F01AF9E3
:10067000102000F017F97A2000F014F9CB2000F0D8
:10068000F9F8392000F00EF92C2000F00BF90020C9
:1006900000F008F9342000F005F9022000F002F91A
:1006A000F72000F0E7F8202000F0FCF8EA2000F046
:1006B000E1F8002000F0F6F8002000F0F3F8C02088
:1006C00000F0D8F81B2000F0EDF8C12000F0D2F8BF
:1006D000012000F0E7F8C52000F0CCF8302000F051
:1006E000E1F8302000F0DEF8C72000F0C3F8B720B2
:1006F00000F0D8F8362000F0BDF8482000F0D2F81D
:100700003A2000F0B7F8552000F0CCF8B12000F006
:10071000B1F8002000F0C6F81A2000F0C3F8B620A7
:1007200000F0A8F80A2000F0BDF8A22000F0BAF806
:10073000F22000F09FF8002000F0B4F8262000F02E
:1007400099F8012000F0AEF8E02000F093F80F20B7
:1007500000F0A8F82A2000F0A5F8282000F0A2F860
:10076000082000F09FF80E2000F09CF8082000F010
:1007700099F8542000F096F8A92000F093F843204F
:1007800000F090F80A2000F08DF80F2000F08AF8B1
:10079000002000F087F8002000F084F8002000F02E
:1007A00081F8002000F07EF8E12000F063F80020DE
:1007B00000F078F8152000F075F8172000F072F8B6
:1007C000072000F06FF8112000F06CF8062000F010
:1007D00069F82B2000F066F8562000F063F83C2002
:1007E00000F060F8052000F05DF8102000F05AF8E5
:1007F0000F2000F057F83F2000F054F83F2000F0A1
:1008000051F80F2000F04EF82B2000F033F80020B4
:1008100000F048F8002000F045F8012000F042F810
:100820003F2000F03FF82A2000F024F8002000F0DC
:1008300039F8002000F036F8002000F033F8EF20FF
:1008400000F030F8112000F015F8142000F020FA24
:10085000292000F00FF80020FFF7BCFD10BD0000BC
:10086000001002400000014000100140040C014053
:10087000A40122420021084A11600121074AC2F85E
:100880009811074908600021034A121F11600121D5
:10089000024AC2F89C117047A00122420000224285
:1008A0000C0C01400121084A1160084AC2F8981155
:1008B000074908600021044A121F11600121034A00
:1008C000C2F89C1170470000A001224200002242A1
:1008D0000C0C014000220F4B1A6001220E4BC3F892
:1008E00098210E4A106000220A4B1B1F1A60012239
:1008F0001A601B1D1A60084BC3F89821074A116043
:100900000022044B1B1F1A600122034BC3F89C21D9
:1009100070470000A0012242000022420C0C01405E
:1009200000200949086001200849C1F898012C20DD
:100930000749086000200449091F08600120034995
:10094000C1F89C0170470000A00122420000224231
:100950000C0C014000B5002015490861C860142046
:10096000486100208861C8610846006840F00100C5
:100970000860084640680F4908400D49486008462D
:1009800000680D4908400A4908600846006820F4DC
:10099000802008600846406820F4FE00486000207F
:1009A000886000214FF0006000F058F800BD0000A2
:1009B000001002400000FFF8FFFFF6FE2DE9F041B5
:1009C0000746884614461D46284600F033F8C5F110
:1009D000040007FA00F60F20284100EA0800064349
:1009E00006F00F06E21704EBD2625211920002F1F8
:1009F000E022D2F800212146E31704EBD3635B1118
:100A0000A4EB431C012303FA0CF31A432046E3171B
:100A100004EBD3635B119B0003F1E023C3F80021D7
:100A20000348005D40EA061001490855BDE8F08121
:100A300000E400E00146072323EA01021202054B0D
:100A400018684FF6FF031840034B18431043014B3F
:100A5000186070470CED00E00000FA05024A0A40F9
:100A60000243024B1A60704780FFFF1F08ED00E051
:100A700000222D4B1A6001222C4BC3F898212A2208
:100A80002B4B1A600022284B1B1F1A6001221A6090
:100A90001B1D1A60244B083B1A600212244B1A607B
:100AA0000022214B1B1F1A6001221A601B1D1A60B5
:100AB0001D4B083B1A60C2B21D4B1A6000221A4B34
:100AC0001B1F1A6001221A6000221B1D1A600122DE
:100AD000154B083B1A602B22154B1A600022124B53
:100AE0001B1F1A6001221A601B1D1A600E4B083B67
:100AF0001A600A120E4B1A6000220B4B1B1F1A6061
:100B000001221A601B1D1A60074B083B1A60CAB20B
:100B1000074B1A600022044B1B1F1A600122034B73
:100B2000C3F89C2170470000A0012242000022422D
:100B30000C0C014030B504460025FFF70BFF1F48A1
:100B4000006840F480301D49086000BF1B48006801
:100B5000400C0028FAD04FF4806018494860A01E6D
:100B6000C4B20846406840EA84404860084640688D
:100B700040F4803048601248006840F0320010496C
:100B800008600E48006840F080700C49086000BFA3
:100B90000A480068400E0028FAD00848406840F033
:100BA00002000649486005E004484068C0F3870534
:100BB00005F00305022DF7D130BD00000010024002
:100BC000002002401D49098801F0200111B31B4992
:100BD000091D0988C8B21A49098801F40041C9B938
:100BE0001749098801F4804161B10A2803D0002126
:100BF000134A118020E01249098841F40041104A4B
:100C0000118019E00D2806D10D49098841F4804171
:100C10000B4A118010E00A490988C1F30D01094A05
:100C2000505407490988491C054A11801146098812
:100C3000C72901DD00211180704700000038014004
:100C40000C00002010000020014600BF704700008B
:100C50004FF0E021096921F004014FF0E022116119
:100C6000C21700EB5272C2F3C702074B1A70194643
:100C7000097801EB4102C2EBC1114FF6FF7202EAA3
:100C8000C101024A118070470000002002000020CC
:100C900001460D4A12884A434FF0E0235A61002270
:100CA0009A6101221A6100BF4FF0E022106900F042
:100CB00001021AB100F48032002AF5D000224FF070
:100CC000E0231A619A6170470200002070B5044663
:100CD0000D4600BF2548008800F040000028F9D0EC
:100CE000E0B22249091D0880E0B20D2803D100209E
:100CF0001F49088007E0E0B20A2804D11D48008897
:100D000018301C4908800D2C2DD00A2C2BD0E0B2B5
:100D1000202802D11648008828B315480088B0F56D
:100D20009A7F07DB1348008818301249088000209A
:100D30000F4908800F480088D82808DB0020FFF7FB
:100D400049FB0A200B490880002009490880E2B2CB
:100D50000848018806480088FFF79CFB0448008883
:100D60000C3003490880204670BD00000038014067
:100D7000040000200600002061240920FFF7DAFEAD
:100D80004820FFF765FFFFF74DFB4FF4E1314820A6
:100D900000F026F8FFF7FCFB13E02146641C09A0D5
:100DA000FFF734FA7A2C00D161244FF47A70FFF700
:100DB0006FFF0A48006808B9012000E000200749D9
:100DC0000860EAE720746865207265616420696ED6
:100DD00074206973202563200D0A0000A0012142C0
:100DE0002DE9F05F05460E46300100F0ABF9814673
:100DF0002E4905FB01F000F0A5F98246494600F0B6
:100E0000BFF80746384600F07DF984B2204600F06E
:100E100099F98346394600F075FA82464FF08341CE
:100E200000F0A4F9814600F06DF980464FF6FF709E
:100E300000EA041404EB080084B21D48806940F005
:100E400004001B4988610846806940F4804088613D
:100E50001848006820F47F6016490860084600685A
:100E600040F40B6008601248C06840F480401049AC
:100E7000C8600846C06820F48040C8600E480480FE
:100E8000001D008842F20C0108430B49091D08802F
:100E90000846008840F02000088002232522032114
:100EA0000846FFF78BFDBDE8F09F000040420F00B1
:100EB00000100240040801400838014090EA010F88
:100EC00048BF81F0004100F12E82421A3CBF801AD7
:100ED00089184FEAD0524FF07F4C1CEA410FA2EB29
:100EE000D15318BF9CEA026F00F03B804FF0004CDA
:100EF0004CEA00204CEA012121FA03FC10EB0C0C17
:100F00001ED202F1FF325FEA1C2040EBC25038BF14
:100F100070471CF07F0F4FEA400C18BFBCF17F4FA9
:100F200038BF7047C3F12003994008BF20F001008B
:100F3000BCF17F4F38BF7047A0F1C04000F0DDB971
:100F40004FEA3C00000A40EBC25028BF1CF0FF0FE4
:100F50004FEA400CE6D018BFBCF17F4F38BF704756
:100F6000EAE79CEA026F05D010EA5C0F08BF00F0C8
:100F70000040704710B500F07AF900BF64FBBE3E38
:100F80004FF47F0C1CEAD0121EBF1CEAD11392EA68
:100F90000C0F93EA0C0F00F0858090EA010F48BF18
:100FA00042F4807240F4000C41F400002CF07F41C8
:100FB00020F07F4000B58142A2EB03020FF2081C33
:100FC000ACEB504EC0F100009EF800E04FEA4E0E30
:100FD00000FB0EFC38BF49004FEA2C1C02F5FA0258
:100FE0000CFB0EF34FEACE1E4FEA112C4FEAC12143
:100FF0000EEB635E42EB22420EFB0CFC4FEA1C53ED
:1010000000FB03114FEA112C4FEA01310EFB0CFCDF
:101010004FEADC4C00FB0C11C14228BF09184CEB15
:1010200003335DF804EB10EB410143EBC250B2F522
:101030007C0F38BF704729D512F0F00F1CBF00F1AC
:10104000C04000F00040704700818283848586871D
:1010500088898B8C8D8E8F919293959697999A9C77
:101060009D9FA0A2A3A5A7A8AAACAEB0B2B3B5B7E6
:10107000B9BCBEC0C2C5C7C9CCCED1D4D7D9DCDFBC
:10108000E2E6E9ECF0F3F7FAFE0000004FEA400C6C
:101090000CF1807CBCF17E4F28BF7047B0F1C0409E
:1010A00000F02BB990EA010F0CEAD11348BF42F4CB
:1010B0008072624538BF634507D213F47F0F16D0A4
:1010C00080EA010000F00040704710B500F0CFF852
:1010D000097EFC3E00F005B880EA010000F0004007
:1010E000704780EA010000F0004000F006B912F4F9
:1010F0007F0F04BF0248704780EA010000F0FDB88E
:101100000000C07FC10DD1F19E0206DB4FEA002333
:1011100043F0004323FA02F07047004207D54FEA3C
:101120004001B1F1FE4F02D24FF00000704710B500
:1011300000F09DF849922480002070476FEA20005B
:1011400070470000B0FA80F310FA03F2C3F19D0378
:101150000AD0D90501EB1220530638BF704700F1C1
:10116000010008BF20F00100704700004FF47F0C21
:101170001CEAD0121EBF1CEAD11392EA0C0F93EAAC
:101180000C0F00F0478090EA010F48BF42F48072D4
:101190004FF0004C4CEA00204CEA012102EB030224
:1011A000A0FB0113A2F50002002918BF43F00103C0
:1011B0005B0028BF4FEA330342EB22425FEA132C65
:1011C0004CEBC2502EBFBCEB436FB2F57C0F7047A7
:1011D0004FEA036CBCF1004F08BF20F00100B2F5EC
:1011E0007C0F38BF70470BD582F0FF0212F5803FAD
:1011F000C8BF704700F1C040D8BF00F00040704742
:1012000000F5000C5FEA4C0C48BF7047B0F1C040DD
:1012100000F073B890EA010F0CEAD11348BF42F412
:101220008072624538BF634504D280EA010000F055
:101230000040704710B500F01AF800BF8900013E69
:1012400000F007B800F009B85FEA410C5FEA1C6CD7
:1012500008D080EA010000F050B85FEA400C5FEA75
:101260001C6CF6D14FF00040A0F5800070470EF1E5
:10127000020E2EF0030E5EF8044B244204D44FEA13
:101280004102B2F17F4F11D84FEA4003B3F17F4FD3
:101290000CD80ED14FEAD07CB2F17F4F0CEB4C0C46
:1012A0000CF1020C08BF4CEBD17C04E04FF0080CB1
:1012B00001E04FEAD17C0CEB4C0324FA03F404F078
:1012C0000704B4F1040C06D20EEB840CBDE8104008
:1012D0004CF0010C6047DFE80CF0070802024FF009
:1012E0000040A0F5800010BD0846420018BFD2F1B2
:1012F000807288BF00F0004010BDFF2141EAD0504D
:10130000C005704780F0004090EA010F7FF5DDAD29
:1013100081F0004100F007B890EA010F48BF81F06A
:1013200000413FF5D2AD421A04D882F00042A0EB52
:10133000020011444FEAD0524FF07F4C1CEA410F9B
:10134000A2EBD15318BF9CEA026F4AD04FF0004C79
:101350004CEA00204CEA012121FA03FCB0EB0C0C12
:101360000FD412F0FE0F36D05FEA4C001DD50012EC
:1013700040EBC25038BF70471CF03F0F18BF70479A
:101380000BE0A2F101025FEA1C2040EBC25038BF23
:1013900070471CF07F0F18BF7047C3F120039940BE
:1013A00014BF401E20F00100704780084FEA12234E
:1013B00008BF7047B0FA80FCA2EB0C02CCF1280CFD
:1013C00060FA0CF093EA122F04BF00EBC250704792
:1013D0004FEAC3707047130A5FEADC1008BF70471A
:1013E000F6E79CEA026F04D010EA5C0F08BF002009
:1013F000704710B5FFF73BFF40DFF63E81F000403D
:101400007047000000000000000000000000000025
:1014100000003F40000000000000000030004000DD
:1014200030004000000009000BC03D000BC03D0033
:10143000090018C024407FE02240318000001800DD
:1014400024C01B000D803240018003801C402740D7
:101450001C800740004010006000000000000000F9
:1014600000000000000000001F802040402000001D
:10147000402020401F8000000000090006001F805F
:10148000060009000000040004003F80040004007E
:1014900000000010006000000000000000000400D8
:1014A00004000400040004000000000000400000EC
:1014B000000000000000002001C0060038004000CD
:1014C00000001F802040204020401F8000000000BE
:1014D00010403FC000400000000018C021402240E2
:1014E00024401840000010802040244024401B80ED
:1014F000000002000D0011003FC0014000003C80D0
:10150000244024402440238000001F8024402440A5
:101510003440038000003000200027C03800200045
:1015200000001B802440244024401B8000001C003D
:1015300022C0224022401F8000000000000008401E
:101540000000000000000000000004600000000037
:101550000000000004000A00110020804040090043
:101560000900090009000900000000004040208037
:1015700011000A0004001800200023402400180075
:1015800000001F802040274029401F4000000040ED
:1015900007C039000F0001C0004020403FC0244078
:1015A00024401B8000001F802040204020403080CD
:1015B000000020403FC0204020401F80000020400D
:1015C0003FC024402E4030C0000020403FC0244097
:1015D0002E00300000000F00108020402240338099
:1015E000020020403FC0040004003FC020402040D3
:1015F00020403FC0204020400000006020202020EC
:101600003FC02000200020403FC024400B0030C0DD
:10161000204020403FC020400040004000C03FC06C
:101620003C0003C03C003FC0000020403FC00C40D5
:1016300023003FC020001F802040204020401F800A
:10164000000020403FC024402400180000001F80FC
:101650002140214020E01FA0000020403FC0244046
:10166000260019C0004018C0244024402240318088
:101670000000300020403FC020403000000020002B
:101680003F80004000403F80200020003E0001C01D
:10169000070038002000380007C03C0007C03800B1
:1016A0000000204039C0060039C020400000200062
:1016B000384007C0384020000000304021C026409C
:1016C000384020C00000000000007FE040204020A3
:1016D0000000000070000C000380004000000000CB
:1016E000402040207FE0000000000000200040007B
:1016F000200000000000001000100010001000107A
:101700000010000000004000000000000000000089
:1017100002800540054003C0004020003FC0044057
:1017200004400380000000000380044004400640A1
:10173000000000000380044024403FC0004000003F
:1017400003800540054003400000000004401FC026
:10175000244024402000000002E0055005500650BF
:10176000042020403FC00440040003C000400000AB
:10177000044027C0004000000000001000100410CA
:1017800027E00000000020403FC00140070004C0E7
:101790000440204020403FC000400040000007C0FF
:1017A000040007C0040003C00000044007C0044058
:1017B000040003C000400000038004400440038094
:1017C0000000041007F004500440038000000000F3
:1017D00003800440045007F00010044007C002409A
:1017E000040004000000000006400540054004C05D
:1017F0000000000004001F800440004000000400BE
:1018000007800040044007C000400400070004C0F7
:10181000018006000400060001C0070001C00600A8
:101820000000044006C0010006C00440000004108F
:10183000071004E00180060004000000044005C019
:101840000640044000000000000004007BE040204F
:101850000000000000000000FFF000000000000099
:1018600040207BE0040000000000400080004000B9
:1018700020002000400000000000000000000000E8
:101880000000000000000000000000001FCC000C61
:1018900000000000000000000800300060000800A8
:1018A000300060000000022003FC1E20022003FC28
:1018B0001E200220000000000E1811043FFF1084BB
:1018C0000C78000000000F0010840F3800C007786B
:1018D00018840078000000780F8410C411240E983A
:1018E00000E40084000808006800700000000000A8
:1018F00000000000000000000000000007E01818D1
:10190000200440020000000040022004181807E0F4
:101910000000000000000240024001800FF0018042
:101920000240024000000080008000800FF800802C
:101930000080008000000001000D000E000000008B
:101940000000000000000000008000800080008097
:101950000080008000800000000C000C00000000EF
:101960000000000000000000000600180060018078
:10197000060018002000000007F0080810041004FA
:10198000080807F000000000080408041FFC000419
:1019900000040000000000000E0C1014102410447D
:1019A00011840E0C000000000C1810041104110426
:1019B00012880C700000000000E0032004240824BA
:1019C0001FFC0024000000001F9810841104110463
:1019D000108810700000000007F00888110411043E
:1019E00018880070000000001C00100010FC13009C
:1019F0001C001000000000000E38114410841084F8
:101A000011440E38000000000700088C10441044F8
:101A1000088807F00000000000000000030C030C21
:101A200000000000000000000000000101060000AE
:101A300000000000000000000080014002200410AF
:101A400008081004000002200220022002200220C8
:101A500002200220000000001004080804100220E8
:101A600001400080000000000E001200100C106CFD
:101A700010800F00000003E00C1813E4142417C4B6
:101A8000082807D000000004003C03C41C400740A5
:101A900000E4001C000410041FFC110411041104D4
:101AA0000E880070000003E00C18100410041004ED
:101AB00010081C10000010041FFC10041004100477
:101AC000080807F0000010041FFC1104110417C4DB
:101AD00010040818000010041FFC1104110017C0A6
:101AE00010000800000003E00C181004100410445B
:101AF0001C780040000010041FFC1084008000804F
:101B000010841FFC10040000100410041FFC1004BB
:101B100010040000000000030001100110011FFE6E
:101B200010001000000010041FFC11040380146456
:101B3000181C1004000010041FFC10040004000412
:101B40000004000C000010041FFC1F0000FC1F001C
:101B50001FFC1004000010041FFC0C04030000E034
:101B600010181FFC100007F00808100410041004DF
:101B7000080807F0000010041FFC1084108010807B
:101B800010800F00000007F0081810241024101C0B
:101B9000080A07F2000010041FFC1104110011C014
:101BA00011300E0C000400000E1C1104108410846F
:101BB00010441C3800001800100010041FFC100412
:101BC00010001800000010001FF8100400040004AA
:101BD00010041FF8100010001E0011E0001C00701F
:101BE00013801C0010001FC0103C00E01F0000E02C
:101BF000103C1FC000001004180C163401C001C0B6
:101C00001634180C100410001C00130400FC1304FC
:101C10001C00100000000804101C10641084130441
:101C20001C04101800000000000000007FFE4002AD
:101C3000400240020000000030000C000380006001
:101C4000001C0003000000004002400240027FFE32
:101C500000000000000000000000200040004000E4
:101C6000400020000000000100010001000100010F
:101C700000010001000100004000400020000000C1
:101C8000000000000000000000980124014401440D
:101C9000014400FC000410001FFC00880104010442
:101CA000008800700000000000700088010401043A
:101CB0000104008800000000007000880104010495
:101CC00011081FFC0004000000F801440144014415
:101CD000014400C800000000010401040FFC1104CD
:101CE000110411001800000000D601290129012962
:101CF00001C90106000010041FFC0084010001005E
:101D0000010400FC000400000104190419FC000493
:101D1000000400000000000000030001010119019F
:101D200019FE0000000010041FFC0024004001B454
:101D3000010C010400000000100410041FFC00044A
:101D4000000400000000010401FC0104010001FC8A
:101D50000104010000FC010401FC008401000100F9
:101D6000010400FC0004000000F801040104010467
:101D7000010400F80000010101FF008501040104D5
:101D80000088007000000000007000880104010459
:101D9000010501FF00010104010401FC00840104AC
:101DA000010001800000000000CC01240124012476
:101DB00001240198000000000100010007F801045F
:101DC000010400000000010001F800040004000408
:101DD000010801FC0004010001800170000C0010EA
:101DE00001600180010001F0010C003001C00030F1
:101DF000010C01F0010000000104018C007401706D
:101E0000018C01040000010101810171000E001824
:101E100001600180010000000184010C01340144D3
:101E20000184010C0000000000000000000001001F
:101E30003EFC400240020000000000000000FFFFE6
:101E40000000000000000000400240023EFC0100D3
:101E500000000000000000006000800080004000E2
:101E600040002000200000000000000000000000F2
:101E70000000000000000000000000000000000062
:101E80000000000000000000000000000000000052
:101E90000000000000000000000F80380FFE380F27
:101EA000803800000000000000000000000000007A
:101EB000000000000100000600000C0000380000D7
:101EC0003100000600000C00003800003000000067
:101ED00000000000000061800067F807F9800061E1
:101EE000800061800061800061800067F807F980F0
:101EF00000618000000000000000000001C0E0035D
:101F0000E0F00630080418081FFFFE040E080787DB
:101F1000F00381E000000000000001F000060C006A
:101F2000040408060C7001F9C0000E00003BE0003C
:101F3000EC18070808040C180003E000000000017A
:101F4000E00007F003F818041C0804170807E1D0A4
:101F500003C0E00023B0003C08002008000010008F
:101F600000000000000100003100003200001C00F1
:101F70000000000000000000000000000000000061
:101F80000000000000000000000000000000000051
:101F90000000000000007F0001FFC00780F00C007F
:101FA00018100004200002000000000000200002C1
:101FB0001000040C00180780F001FFC0007F000033
:101FC0000000000000000000000000000000000011
:101FD00000004200006600006600003C000018009F
:101FE00003FFC0001800003C00006600006600000F
:101FF000420000000000080000080000080000087F
:102000000000080001FFC0000800000800000800F0
:10201000000800000800000000000001000031007E
:10202000003200001C000000000000000000000062
:102030000000000000000000000000000000080098
:102040000008000008000008000008000008000068
:102050000800000800000800000800000000000060
:1020600000000000000038000038000038000000C8
:102070000000000000000000000000000000000060
:10208000000000000000000600001C0000700001BD
:1020900080000E0000380000C0000700001C000097
:1020A000300000000000000000007F8001FFE0031E
:1020B0008070060018040008040008060018038059
:1020C0007001FFE0007F80000000000000000000C1
:1020D00001000801000801000803FFF807FFF800ED
:1020E00000080000080000080000000000000000D8
:1020F0000001C03802C058040098040118040218F6
:10210000040418061C1803F81801E0F80000000089
:10211000000000000001C0E003C0F0040008040853
:102120000804080806180803F41801E7F00001E0A5
:10213000000000000000000000000300000D00008F
:10214000110000610000810803010807FFF80FFF7C
:10215000F80001080001080000000000000000E095
:1021600007FCD00608080610080610080610080626
:102170001838060FF00607C000000000000000003D
:1021800000003F8001FFE0038430020818041008BB
:10219000041008041008071810030FF00007C0000F
:1021A000000000000000000003C00007000006005F
:1021B000000600F80607F806180006E00007000011
:1021C00006000000000000000001E1E003F7F00657
:1021D0003410041808041808040C08040C08061627
:1021E0001803F3F001C1E000000000000000F80057
:1021F00003FC300306380402080402080402080441
:1022000004100308F001FFC0007F00000000000080
:102210000000000000000000000000000000703816
:10222000007038007038000000000000000000005E
:10223000000000000000000000000000000000009E
:102240000000301A00301C000000000000000000F8
:102250000000000000000000000000000008000076
:1022600014000022000041000080800100400200B4
:1022700020040010080008000000000000002100F9
:1022800000210000210000210000210000210000A9
:1022900021000021000021000021000000000000BA
:1022A00000000000080008040010020020010040A7
:1022B000008080004100002200001400000800009F
:1022C000000000000003C00004C00004000008007B
:1022D00038080F380808380810000C300007E000F4
:1022E00003C000000000000000003F8000FFE0038A
:1022F0008070020F1006708804C088048308047F71
:102300008802C09003012000FE4000000800001871
:102310000001F8003E0801C20007020007E20000C9
:10232000FE00001FC80001F800003800000804008B
:102330000807FFF807FFF80408080408080408085D
:1023400004080806180803F41801E7F00001E0008B
:102350000000000000003F8001FFE00380700200E9
:1023600018040008040008040008040010060020F7
:102370000780C000000004000807FFF807FFF8040A
:10238000000804000804000804001802001003807C
:102390007001FFE0007F8000000004000807FFF8E4
:1023A00007FFF804080804080804080804080804DB
:1023B0003E08040008060018010060000000040048
:1023C0000807FFF807FFF8040808040800040800DD
:1023D000040800043E000600000600000180000022
:1023E0000000000000003F8001FFE0038070060055
:1023F000180400080402080402080203F00783F02E
:1024000000020000020004000807FFF807FFF804BC
:102410000808000800000800000800000800040880
:102420000807FFF807FFF80400080000000000009C
:1024300004000804000804000807FFF807FFF80478
:10244000000804000804000800000000000000006C
:102450000000000600000700000104000104000164
:1024600004000307FFFE07FFFC0400000400000453
:10247000000004000807FFF807FFF8040C08001824
:1024800000003E0004C7800503C80600F8040038B9
:1024900004001800000804000807FFF807FFF8040C
:1024A0000008000008000008000008000008000004
:1024B0000800001800006000000004000807FFF892
:1024C00007800807FC00007FC00003F80007C00079
:1024D000780007800807FFF807FFF80400080400E9
:1024E0000807FFF807000803C00000E000003800FC
:1024F000001E000007000001C00400F007FFF80400
:102500000000000000007F8001FFE00380700600F3
:102510001804000804000806001803003001FFE05A
:10252000007F8000000004000807FFF807FFF804A0
:102530000408040400040400040400040400060C5D
:102540000003F80001F000000000000000007F80A0
:1025500001FFE00380700600880400880400C806BC
:10256000003C03003E01FFE6007F84000000040001
:102570000807FFF807FFF8040808040800040C0027
:10258000040F00040BC00610F003F03801E008004F
:10259000000800000001E0F803F0300630100418D5
:1025A00008041808040C08040C080206180207F0B6
:1025B0000781E00000000180000600000400000424
:1025C000000004000807FFF807FFF80400080400F3
:1025D0000004000006000001800004000007FFE086
:1025E00007FFF004001800000800000800000800C1
:1025F000000800000804001007FFE00400000400C9
:102600000006000007E00007FE00041FE00001F8DC
:102610000000380001E0043E0007C000060000048E
:10262000000004000007E00007FFC0041FF80007D7
:10263000C007F80007FF80043FF80007C004F80057
:10264000070000040000000000040008060018074E
:10265000C07805F1C8003E00001F800463E80780D1
:10266000F80600180400080000000400000600003E
:1026700007800007E008047C08001FF80007F80046
:10268000180804E00807000006000004000000002D
:10269000000100080600380400F80403E8040F08ED
:1026A000047C0805F00807C0080700180400600053
:1026B000000000000000000000000000000000001A
:1026C000003FFFFE20000220000220000220000246
:1026D00020000200000000000000000008000007C9
:1026E000000000C0000038000006000001C000002B
:1026F0003000000E0000010000000000000000009B
:102700002000022000022000022000022000023FE0
:10271000FFFE0000000000000000000000000000BC
:102720000000000000000008000010000030000061
:102730002000003000001000000800000000000031
:102740000000000001000001000001000001000085
:102750000100000100000100000100000100000173
:102760000000010000010000000000000000002047
:102770000000200000100000100000000000000019
:10278000000000000000000000000000000000F059
:102790000019F8001B180022080026080024080071
:1027A0002410003FF8001FF8000008000018000087
:1027B0000004000007FFF80FFFF0001818001008D1
:1027C000002008002008003018001FF0000FC00093
:1027D00000000000000007C0001FF00018300020BB
:1027E00008002008002008003C08001C10000060C1
:1027F0000000000000000000000007C0001FF00003
:10280000381800200800200800200804101007FFD6
:10281000F80FFFF0000010000000000000000000B2
:102820000007C0001FF0001230002218002208002C
:102830002208003208001E10000E200000000000D8
:102840000000200000200800200801FFF803FFF826
:1028500006200804200804200807200003000000C8
:10286000000000000000000E000E6E001FF300319B
:10287000B10020B10020B1003191001F13002E1EC5
:1028800000200E00300000000004000807FFF80FD1
:10289000FFF8001008002000002000002008003F82
:1028A000F8001FF800000800000000000000000011
:1028B000002008002008002008063FF8063FF80026
:1028C00000080000080000080000000000000000F0
:1028D00000000000000003000003002001002001B0
:1028E000002003063FFE063FFC0000000000000041
:1028F000000000000004000807FFF80FFFF80001C7
:1029000088000300002FC00038F80020380020089D
:10291000000008000000000000000000040008049F
:10292000000804000807FFF80FFFF8000008000087
:1029300008000008000000000000002008003FF828
:10294000003FF8001008002000003FF8003FF800AA
:102950001008002000003FF8003FF80000080000C9
:1029600000002008003FF8003FF8001008001000A9
:10297000002000002008003FF8001FF800000800B9
:1029800000000000000007C0000FF0001830003009
:1029900008002008002008003008001830000FF060
:1029A0000007C0000000000000002001003FFF0001
:1029B0003FFF00101100200900200800200800300F
:1029C00038001FF0000FC00000000000000007C02A
:1029D000001FF0003818002008002008002009001F
:1029E0001011001FFF003FFF000001000000002049
:1029F00008002008002008003FF8003FF800080801
:102A00000010080020080020000030000030000006
:102A10000000000000000000000C78001E180033C9
:102A2000080023080021080021880021980030F0C8
:102A300000386000000000000000200000200000BE
:102A4000200000FFF003FFF800200800200800200D
:102A5000080000300000000000000000000020001E
:102A6000003FF0007FF80000180000080000080098
:102A70002010003FF8007FF0000010000000000070
:102A800000002000003000003C00003F800023F0E8
:102A9000000078000070002380003C00003000003F
:102AA0002000002000003C00003FE00023F8000070
:102AB000E0002700003E00003FE00021F80001E0B8
:102AC000003E000020000000000020080020080058
:102AD0003838003E680027800003C8002CF8003812
:102AE000380020180020080000000000000020002E
:102AF000003003003C01003F830023EC0000700025
:102B00002380003C000020000020000000000000A6
:102B1000000000000038080020380020F80023E8FA
:102B2000002F88003E0800380800201800007000C0
:102B30000000000000000000000000000000000095
:102B4000000008000014001FF7FC300006200002FF
:102B50000000000000000000000000000000000075
:102B60000000000000000000FFFFFF000000000068
:102B70000000000000000000000000000000000055
:102B80002000023000061FF7FC00140000080000BF
:102B90000000000000000000000000000000000035
:102BA000001800006000004000004000002000000D
:102BB0001000000800000400000400000C000010D9
:102BC00000000000E42B00080000002010000000BE
:102BD0006C010008F42B00081000002028050000FC
:102BE000880100080000000000000A00000000004A
:042BF00000000000E1
:0400000508000131BD
:00000001FF
